:1000000029C0000042C0000040C000003EC0000007
:10001000E4C20000BBC2000092C2000042C2000065
:1000200067C2000017C20000EEC10000C5C1000099
:100030002CC0000099C1000028C0000026C00000AC
:10004000C8C0000022C0000020C000001EC0000088
:100050001CC0000011241FBECFE5D8E0DEBFCDBF1D
:1000600010E0A0E6B0E0E0EBF7E002C005900D92F2
:10007000A037B107D9F720E0A0E7B0E001C01D929A
:10008000A838B207E1F745D091C3BACFCF93DF9339
:100090001F92CDB7DEB78983C9D2C6D21092710044
:1000A00089818C3FB1F050F48A3F31F118F58A3ADA
:1000B00051F58AEA0F90DF91CF9152C18E3F99F0AE
:1000C00040F48DEF809370006FE970E080E090E085
:1000D00006C0809370006FE470E080E090E00F90C5
:1000E000DF91CF9140C38093700067E270E080E0C1
:1000F00090E0F5CF49E001C045E06FEF80E00F9060
:10010000DF91CF91B3C0109270000F90DF91CF912B
:10011000089549E06FEF80E0A9D089E085D080E0C4
:100120009FD04FE450E060E070E084E0D8D27ED20F
:1001300060E874E88EE190E0E3D086E490E005D1D9
:1001400008B601FEFDCF88B7826088BF809170003D
:100150008D3F51F020F48C3F99F7369A13C08E3FB3
:1001600001F18F3FD1F0ECCF369A3699FECF5D9BEF
:10017000FECF84B195B18CB95D9BFECF84B195B1B2
:100180009CB9DECF3699FECF5D9BFECF84B195B191
:1001900096958795969587951AC05D9BFECF89B3F6
:1001A00016C029B39091720030E1939FC0011124D1
:1001B000922F9F70892B809372009091710021E0A3
:1001C000290F2093710090FFBBCF5D9BFECF8CB9B0
:1001D000B7CF1F920F920FB60F9211242F933F9318
:1001E0004F935F936F937F938F939F93AF93BF933F
:1001F000EF93FF9384B125B190E0E0917300F0910B
:100200007400922B0995FF91EF91BF91AF919F914F
:100210008F917F916F915F914F913F912F910F90AF
:100220000FBE0F901F901895379897B1282F2295E1
:10023000220F220F207C9F73922B97B996B1282F03
:1002400022952770987F922B96B9379A82FF06C025
:1002500080B78F7180BF359A369A08953598089582
:1002600097B18F71907E892B87B90895CF93DF93D3
:10027000CDB7DEB760970FB6F894DEBF0FBECDBF27
:1002800098E0E0E6F0E0DE01199601900D929A9573
:10029000E1F798E0E8E6F0E0DE01119601900D92BA
:1002A0009A95E1F7843018F5E82FF0E0EE0FFF1F84
:1002B00081E090E08C0F9D1FE80FF91F41FF04C003
:1002C0000084F185E02D0CC0A085B1859C91862F1E
:1002D000809598239C930190F081E02D43FF04C00A
:1002E0008081682B608303C090818923808360961E
:1002F0000FB6F894DEBF0FBECDBFDF91CF9108954A
:100300002AB1277E2AB9599A9B01AC0183E0220FBA
:10031000331F441F551F8A95D1F760E074E284EFC4
:1003200090E022D2BA01A901415051096109710935
:10033000BB27A72F962F852F80BD49B980B586682A
:1003400080BD8AB188618AB90895909376008093C0
:100350007500892B19F0579A789408955798089545
:100360005D9BFECF8CB908951F920F920FB60F922E
:1003700011242F933F934F935F936F937F938F93AA
:100380009F93AF93BF93EF93FF938CB1E091750070
:10039000F09176000995FF91EF91BF91AF919F91F8
:1003A0008F917F916F915F914F913F912F910F901E
:1003B0000FBE0F901F9018951F920F920FB60F92BD
:1003C00011242F933F934F935F936F937F938F935A
:1003D0009F93AF93BF93EF93FF93E0918400F091CD
:1003E00085000995FF91EF91BF91AF919F918F91FA
:1003F0007F916F915F914F913F912F910F900FBE21
:100400000F901F9018951F920F920FB60F92112404
:100410002F933F934F935F936F937F938F939F930C
:10042000AF93BF93EF93FF93E0918600F091870025
:100430000995FF91EF91BF91AF919F918F917F911E
:100440006F915F914F913F912F910F900FBE0F9041
:100450001F9018951F920F920FB60F9211242F9391
:100460003F934F935F936F937F938F939F93AF933C
:10047000BF93EF93FF93E0917E00F0917F00099589
:10048000FF91EF91BF91AF919F918F917F916F916C
:100490005F914F913F912F910F900FBE0F901F9042
:1004A00018951F920F920FB60F9211242F933F931E
:1004B0004F935F936F937F938F939F93AF93BF936C
:1004C000EF93FF93E0918200F09183000995FF91F3
:1004D000EF91BF91AF919F918F917F916F915F91BC
:1004E0004F913F912F910F900FBE0F901F90189535
:1004F0001F920F920FB60F9211242F933F934F9399
:100500005F936F937F938F939F93AF93BF93EF937B
:10051000FF93E0918000F09181000995FF91EF91A8
:10052000BF91AF919F918F917F916F915F914F910B
:100530003F912F910F900FBE0F901F9018951F9213
:100540000F920FB60F9211242F933F934F935F9307
:100550006F937F938F939F93AF93BF93EF93FF938B
:10056000E0917C00F0917D000995FF91EF91BF91A2
:10057000AF919F918F917F916F915F914F913F913B
:100580002F910F900FBE0F901F9018951F920F92F2
:100590000FB60F9211242F933F934F935F936F9356
:1005A0007F938F939F93AF93BF93EF93FF93E091CC
:1005B0007800F09179000995FF91EF91BF91AF918B
:1005C0009F918F917F916F915F914F913F912F916B
:1005D0000F900FBE0F901F9018951F920F920FB69D
:1005E0000F9211242F933F934F935F936F937F93B9
:1005F0008F939F93AF93BF93EF93FF93E0917A0014
:10060000F0917B000995FF91EF91BF91AF919F9180
:100610008F917F916F915F914F913F912F910F90AB
:100620000FBE0F901F90189512BE089583B7887F54
:1006300083BF0895CF93DF9300D000D0CDB7DEB74E
:100640006F3F71058105910509F010F421E032C07A
:10065000693F27E072078105910548F453E09695BC
:100660008795779567955A95D1F722E023C0613C2D
:100670002FE372078105910548F446E0969587952A
:10068000779567954A95D1F723E014C061302FEF35
:1006900072078105910530F4672F782F892F9927EC
:1006A00024E008C02AE096958795779567952A9566
:1006B000D1F725E02093770069837A838B839C832D
:1006C000B5DF69816CBF93B780917700892B83BFB9
:1006D0000F900F900F900F90DF91CF910895CF93CF
:1006E000DF9300D000D01F92CDB7DEB74A835B8383
:1006F0006C837D8389839ADF98B7936098BF8981E3
:10070000982F9F704A815B816C817D81923039F096
:1007100050F0943031F0983031F498EC05C090EC02
:1007200003C098E801C090E893BF93B79F7C93BF44
:10073000807F803439F0803841F0803251F483B7C3
:10074000806105C083B7806202C083B7806383BFC6
:10075000BB9ACB01BA010F900F900F900F900F90A2
:10076000DF91CF9167CF66CFA1E21A2EAA1BBB1BE8
:10077000FD010DC0AA1FBB1FEE1FFF1FA217B3076D
:10078000E407F50720F0A21BB30BE40BF50B661F83
:10079000771F881F991F1A9469F760957095809547
:1007A00090959B01AC01BD01CF010895F894FFCF56
:1007B0003A003700340031003B0038003500320089
:00000001FF
