:1000000045C000005EC000005CC000005AC0000097
:1000100058C0000056C0000054C0000052C000008C
:1000200050C000003EC3000015C30000ECC2000039
:1000300075C200009AC200004AC2000021C200003E
:10004000F8C100003EC0000073C100003AC00000CB
:1000500038C00000DAC0000034C0000032C0000028
:10006000ABC20000E1C300006AC300008FC3000000
:10007000B4C300003DC3000083C1000022C00000E3
:1000800020C000001EC000001CC0000011241FBEC4
:10009000CFEFD0E1DEBFCDBF11E0A0E0B1E0E8E3FB
:1000A000FAE002C005900D92AC31B107D9F721E01A
:1000B000ACE1B1E001C01D92A234B207E1F745D036
:1000C000B9C49ECFCF93DF931F92CDB7DEB789839C
:1000D000D4D3D1D310921D0189818C3FB1F050F45B
:1000E0008A3F31F118F58A3A51F58AEA0F90DF918B
:1000F000CF919BC18E3F99F040F48DEF80931C010E
:100100006FE970E080E090E006C080931C016FE42E
:1001100070E080E090E00F90DF91CF9168C4809311
:100120001C0167E270E080E090E0F5CF49E001C09B
:1001300045E06FEF80E00F90DF91CF91AFC010925C
:100140001C010F90DF91CF91089549E06FEF80E09F
:10015000A5D089E085D080E09BD04FE450E060E0FE
:1001600070E082E001D489D360E874E88EE190E029
:1001700030D182E690E04ED106B601FEFDCF86B7C3
:10018000826086BF80911C018D3F51F020F48C3F2E
:1001900099F7369A13C08E3F01F18F3FD1F0ECCF23
:1001A000369A3699FECF5D9BFECF84B195B18CB95E
:1001B0005D9BFECF84B195B19CB9DECF3699FECF61
:1001C0005D9BFECF84B195B1969587959695879561
:1001D0001AC05D9BFECF89B316C029B390911E0152
:1001E00030E1939FC0011124922F9F70892B80933F
:1001F0001E0190911D0121E0290F20931D0190FF08
:10020000BBCF5D9BFECF8CB9B7CF1F920F920FB6BD
:100210000F9211242F933F934F935F936F937F938C
:100220008F939F93AF93BF93EF93FF9384B125B1C7
:1002300090E0E0911F01F0912001922B0995FF9130
:10024000EF91BF91AF919F918F917F916F915F914E
:100250004F913F912F910F900FBE0F901F901895C7
:1002600097B1282F2295220F220F207C9F73922B6B
:1002700097B996B1282F22952770987F922B96B91F
:10028000379A82FF03C0359A369A089535980895B3
:1002900097B18F71907E892B87B90895CF93DF93A3
:1002A000CDB7DEB76C970FB6F894DEBF0FBECDBFEB
:1002B0009EE0E0E0F1E0DE011F9601900D929A953C
:1002C000E1F79EE0EEE0F1E0DE01119601900D9283
:1002D0009A95E1F7873018F5E82FF0E0EE0FFF1F51
:1002E00081E090E08C0F9D1FE80FF91F41FF04C0D3
:1002F0000684F785E02D0CC0A685B7859C91862FD6
:10030000809598239C930190F081E02D43FF04C0D9
:100310008081682B608303C09081892380836C96E1
:100320000FB6F894DEBF0FBECDBFDF91CF91089519
:100330001F920F920FB60F9211242F933F934F935A
:100340005F936F937F938F939F93AF93BF93EF933D
:10035000FF938CB1E0912301F09124010995FF9165
:10036000EF91BF91AF919F918F917F916F915F912D
:100370004F913F912F910F900FBE0F901F901895A6
:100380001F920F920FB60F9211242F933F934F930A
:100390005F936F937F938F939F93AF93BF93EF93ED
:1003A000FF9380919C00E0912101F0912201099539
:1003B000FF91EF91BF91AF919F918F917F916F913D
:1003C0005F914F913F912F910F900FBE0F901F9013
:1003D00018959B01AC018AB1877E8AB9599A60E869
:1003E00074E88EE190E004D3BA01A90141505109AB
:1003F00061097109BB27A72F962F852F8093900045
:1004000049B9E5E9F0E08081826080838AB1886142
:100410008AB908959093240180932301892B19F0C0
:10042000579A78940895579808955D9BFECF8CB99C
:1004300008951F920F920FB60F9211242F933F939E
:100440004F935F936F937F938F939F93AF93BF93DC
:10045000EF93FF93E0913E01F0913F010995FF91E9
:10046000EF91BF91AF919F918F917F916F915F912C
:100470004F913F912F910F900FBE0F901F901895A5
:100480001F920F920FB60F9211242F933F934F9309
:100490005F936F937F938F939F93AF93BF93EF93EC
:1004A000FF93E0914001F09141010995FF91EF9197
:1004B000BF91AF919F918F917F916F915F914F917C
:1004C0003F912F910F900FBE0F901F9018951F9284
:1004D0000F920FB60F9211242F933F934F935F9378
:1004E0006F937F938F939F93AF93BF93EF93FF93FC
:1004F000E0913C01F0913D010995FF91EF91BF9191
:10050000AF919F918F917F916F915F914F913F91AB
:100510002F910F900FBE0F901F9018951F920F9262
:100520000FB60F9211242F933F934F935F936F93C6
:100530007F938F939F93AF93BF93EF93FF93E0913C
:100540003A01F0913B010995FF91EF91BF91AF9175
:100550009F918F917F916F915F914F913F912F91DB
:100560000F900FBE0F901F9018951F920F920FB60D
:100570000F9211242F933F934F935F936F937F9329
:100580008F939F93AF93BF93EF93FF93E0913801C5
:10059000F09139010995FF91EF91BF91AF919F9132
:1005A0008F917F916F915F914F913F912F910F901C
:1005B0000FBE0F901F9018951F920F920FB60F92BB
:1005C00011242F933F934F935F936F937F938F9358
:1005D0009F93AF93BF93EF93FF93E0913601F09118
:1005E00037010995FF91EF91BF91AF919F918F9145
:1005F0007F916F915F914F913F912F910F900FBE1F
:100600000F901F9018951F920F920FB60F92112402
:100610002F933F934F935F936F937F938F939F930A
:10062000AF93BF93EF93FF93E0913401F0913501C5
:100630000995FF91EF91BF91AF919F918F917F911C
:100640006F915F914F913F912F910F900FBE0F903F
:100650001F9018951F920F920FB60F9211242F938F
:100660003F934F935F936F937F938F939F93AF933A
:10067000BF93EF93FF93E0913001F0913101099521
:10068000FF91EF91BF91AF919F918F917F916F916A
:100690005F914F913F912F910F900FBE0F901F9040
:1006A00018951F920F920FB60F9211242F933F931C
:1006B0004F935F936F937F938F939F93AF93BF936A
:1006C000EF93FF93E0913201F09133010995FF918F
:1006D000EF91BF91AF919F918F917F916F915F91BA
:1006E0004F913F912F910F900FBE0F901F90189533
:1006F0001F920F920FB60F9211242F933F934F9397
:100700005F936F937F938F939F93AF93BF93EF9379
:10071000FF93E0912E01F0912F010995FF91EF9148
:10072000BF91AF919F918F917F916F915F914F9109
:100730003F912F910F900FBE0F901F9018951F9211
:100740000F920FB60F9211242F933F934F935F9305
:100750006F937F938F939F93AF93BF93EF93FF9389
:10076000E0912C01F0912D010995FF91EF91BF913E
:10077000AF919F918F917F916F915F914F913F9139
:100780002F910F900FBE0F901F9018951F920F92F0
:100790000FB60F9211242F933F934F935F936F9354
:1007A0007F938F939F93AF93BF93EF93FF93E091CA
:1007B0002A01F0912B010995FF91EF91BF91AF9123
:1007C0009F918F917F916F915F914F913F912F9169
:1007D0000F900FBE0F901F9018951F920F920FB69B
:1007E0000F9211242F933F934F935F936F937F93B7
:1007F0008F939F93AF93BF93EF93FF93E091280163
:10080000F09129010995FF91EF91BF91AF919F91CF
:100810008F917F916F915F914F913F912F910F90A9
:100820000FBE0F901F9018951F920F920FB60F9248
:1008300011242F933F934F935F936F937F938F93E5
:100840009F93AF93BF93EF93FF93E0912601F091B5
:1008500027010995FF91EF91BF91AF919F918F91E2
:100860007F916F915F914F913F912F910F900FBEAC
:100870000F901F90189512BE089583B7887F83BF8D
:100880000895CF93DF9300D000D0CDB7DEB76F3F90
:1008900071058105910509F010F421E050C0693F10
:1008A00027E072078105910548F4F3E09695879556
:1008B00077956795FA95D1F722E041C0613E2FE127
:1008C00072078105910548F4E5E09695879577953F
:1008D0006795EA95D1F723E032C0613C2FE37207B8
:1008E0008105910548F456E096958795779567952B
:1008F0005A95D1F724E023C061382FE772078105AC
:10090000910548F447E096958795779567954A95C0
:10091000D1F725E014C061302FEF720781059105F2
:1009200030F4672F782F892F992726E008C02AE016
:1009300096958795779567952A95D1F727E0209327
:10094000250169837A838B839C8397DF698161BFEB
:1009500093B780912501892B83BF0F900F900F9043
:100960000F90DF91CF910895CF93DF9300D000D007
:100970001F92CDB7DEB74A835B836C837D83898307
:100980007CDF96B7936096BF8981982F93704A81D8
:100990005B816C817D81923041F0933041F09130E8
:1009A00011F090E805C090EC03C098E801C098EC05
:1009B00093BF93B79F7C93BF807E803439F080389B
:1009C00041F0803251F483B7806105C083B7806203
:1009D00002C083B7806383BFBC9ACB01BA010F907A
:1009E0000F900F900F900F90DF91CF914ACF49CF8A
:1009F000A1E21A2EAA1BBB1BFD010DC0AA1FBB1F23
:100A0000EE1FFF1FA217B307E407F50720F0A21B94
:100A1000B30BE40BF50B661F771F881F991F1A9401
:100A200069F760957095809590959B01AC01BD012B
:080A3000CF010895F894FFCFF7
:100A38003A003700340031002200610064003B00B6
:0C0A480038003500320023006200650019
:00000001FF
