:100000000C9446000C9465000C9465000C946500FB
:100010000C9465000C9465000C9465000C946500CC
:100020000C9465000C946F020C9444020C94190219
:100030000C9498010C94C3010C946D010C94420132
:100040000C9417010C9465000C94D9080C9465006D
:100050000C9465000C9467000C9465000C9465008A
:100060000C94EE010C9446030C94C5020C94F0021F
:100070000C941B030C949A020C9405090C946500D3
:100080000C9465000C9465000C94650011241FBE4F
:10009000CFEFD0E1DEBFCDBF11E0A0E0B1E0EAECF0
:1000A000FAE100E00BBF02C007900D92AC35B1073A
:1000B000D9F721E0ACE5B1E001C01D92A538B20747
:1000C000E1F70E94B00B0C94630D0C9400001F929A
:1000D0000F920FB60F9211240BB60F922F933F93EE
:1000E0004F935F936F937F938F939F93AF93BF9340
:1000F000EF93FF9384B125B190E0E0915C01F09122
:100100005D01922B0995FF91EF91BF91AF919F9166
:100110008F917F916F915F914F913F912F910F90B0
:100120000BBE0F900FBE0F901F90189597B1282F00
:100130002295220F220F207C9F73922B97B996B1A4
:10014000282F22952770987F922B96B9379A82FF95
:1001500003C0359A369A08953598089597B18F71EE
:10016000907E892B87B90895339890935D01809391
:100170005C01892B11F0339A78940895359B03C064
:1001800084B195B10895369A3699FECFF9CFCF93C1
:10019000DF93CDB7DEB76C970FB6F894DEBF0FBE16
:1001A000CDBF9EE0E0E0F1E0DE011F9601900D92F0
:1001B0009A95E1F79EE0EEE0F1E0DE011196019004
:1001C0000D929A95E1F7873018F5E82FF0E0EE0FE1
:1001D000FF1F81E090E08C0F9D1FE80FF91F41FF8A
:1001E00004C00684F785E02D0CC0A685B7859C91D8
:1001F000862F809598239C930190F081E02D43FFFA
:1002000004C08081682B608303C090818923808330
:100210006C960FB6F894DEBF0FBECDBFDF91CF91C5
:1002200008950895089508950895089508951F92D2
:100230000F920FB60F9211240BB60F922F933F938C
:100240004F935F936F937F938F939F93AF93BF93DE
:10025000EF93FF93E0917A01F0917B010995FF9173
:10026000EF91BF91AF919F918F917F916F915F912E
:100270004F913F912F910F900BBE0F900FBE0F909B
:100280001F9018951F920F920FB60F9211240BB664
:100290000F922F933F934F935F936F937F938F931F
:1002A0009F93AF93BF93EF93FF93E0917C01F09105
:1002B0007D010995FF91EF91BF91AF919F918F9132
:1002C0007F916F915F914F913F912F910F900BBE56
:1002D0000F900FBE0F901F9018951F920F920FB6A0
:1002E0000F9211240BB60F922F933F934F935F936E
:1002F0006F937F938F939F93AF93BF93EF93FF93EE
:10030000E0917801F09179010995FF91EF91BF910A
:10031000AF919F918F917F916F915F914F913F919D
:100320002F910F900BBE0F900FBE0F901F9018953E
:100330001F920F920FB60F9211240BB60F922F93AC
:100340003F934F935F936F937F938F939F93AF935D
:10035000BF93EF93FF93E0917601F09177010995B8
:10036000FF91EF91BF91AF919F918F917F916F918D
:100370005F914F913F912F910F900BBE0F900FBE49
:100380000F901F9018951F920F920FB60F92112485
:100390000BB60F922F933F934F935F936F937F937F
:1003A0008F939F93AF93BF93EF93FF93E09174016B
:1003B000F09175010995FF91EF91BF91AF919F91D8
:1003C0008F917F916F915F914F913F912F910F90FE
:1003D0000BBE0F900FBE0F901F9018951F920F929B
:1003E0000FB60F9211240BB60F922F933F934F939A
:1003F0005F936F937F938F939F93AF93BF93EF938D
:10040000FF93E0917201F09173010995FF91EF91D3
:10041000BF91AF919F918F917F916F915F914F911C
:100420003F912F910F900BBE0F900FBE0F901F901A
:1004300018951F920F920FB60F9211240BB60F92C0
:100440002F933F934F935F936F937F938F939F93DC
:10045000AF93BF93EF93FF93E0917001F09171011F
:100460000995FF91EF91BF91AF919F918F917F91EE
:100470006F915F914F913F912F910F900BBE0F9015
:100480000FBE0F901F9018951F920F920FB60F92EC
:1004900011240BB60F922F933F934F935F936F935B
:1004A0007F938F939F93AF93BF93EF93FF93E091CD
:1004B0006C01F0916D010995FF91EF91BF91AF91A2
:1004C0009F918F917F916F915F914F913F912F916C
:1004D0000F900BBE0F900FBE0F901F9018951F929C
:1004E0000F920FB60F9211240BB60F922F933F93DA
:1004F0004F935F936F937F938F939F93AF93BF932C
:10050000EF93FF93E0916E01F0916F010995FF91D8
:10051000EF91BF91AF919F918F917F916F915F917B
:100520004F913F912F910F900BBE0F900FBE0F90E8
:100530001F9018951F920F920FB60F9211240BB6B1
:100540000F922F933F934F935F936F937F938F936C
:100550009F93AF93BF93EF93FF93E0916A01F09164
:100560006B010995FF91EF91BF91AF919F918F9191
:100570007F916F915F914F913F912F910F900BBEA3
:100580000F900FBE0F901F9018951F920F920FB6ED
:100590000F9211240BB60F922F933F934F935F93BB
:1005A0006F937F938F939F93AF93BF93EF93FF933B
:1005B000E0916801F09169010995FF91EF91BF9178
:1005C000AF919F918F917F916F915F914F913F91EB
:1005D0002F910F900BBE0F900FBE0F901F9018958C
:1005E0001F920F920FB60F9211240BB60F922F93FA
:1005F0003F934F935F936F937F938F939F93AF93AB
:10060000BF93EF93FF93E0916601F0916701099525
:10061000FF91EF91BF91AF919F918F917F916F91DA
:100620005F914F913F912F910F900BBE0F900FBE96
:100630000F901F9018951F920F920FB60F921124D2
:100640000BB60F922F933F934F935F936F937F93CC
:100650008F939F93AF93BF93EF93FF93E0916401C8
:10066000F09165010995FF91EF91BF91AF919F9135
:100670008F917F916F915F914F913F912F910F904B
:100680000BBE0F900FBE0F901F9018951F920F92E8
:100690000FB60F9211240BB60F922F933F934F93E7
:1006A0005F936F937F938F939F93AF93BF93EF93DA
:1006B000FF93E0916201F09163010995FF91EF9141
:1006C000BF91AF919F918F917F916F915F914F916A
:1006D0003F912F910F900BBE0F900FBE0F901F9068
:1006E000189583B7887F83BF12BE93B7809161014D
:1006F000892B83BF089512BE089583B7887F83BF77
:100700000895CF93DF93CDB7DEB7A0970FB6F894D7
:10071000DEBF0FBECDBF80E2ECE1F1E0DE0111965D
:1007200001900D928A95E1F762B7862F90E0A0E0E4
:10073000B0E020916101E1E0F0E0EC0FFD1F34E05A
:10074000239FE00DF11D1124BC01CD01008004C0E8
:10075000660F771F881F991F0A94D2F7A0960FB6CD
:10076000F894DEBF0FBECDBFDF91CF910895682F03
:1007700070E080E090E00E946A0C23E333E343E200
:1007800050E40E94CE0C0E94390C61BF92B781B731
:10079000891718F481B7815082BF0895CF93DF93F2
:1007A00000D000D0CDB7DEB76F3F71058105910550
:1007B00009F010F421E050C0693F27E0720781057D
:1007C000910548F4F3E09695879577956795FA95A6
:1007D000D1F722E041C0613E2FE17207810591050A
:1007E00048F4E5E09695879577956795EA95D1F772
:1007F00023E032C0613C2FE372078105910548F484
:1008000056E096958795779567955A95D1F724E0A8
:1008100023C061382FE772078105910548F447E04E
:1008200096958795779567954A95D1F725E014C0F9
:1008300061302FEF72078105910530F4672F782F13
:10084000892F992726E008C02AE096958795779505
:1008500067952A95D1F727E02093610169837A8310
:100860008B839C830E947D03698161BF93B78091D4
:100870006101892B83BF0F900F900F900F90DF9134
:10088000CF910895CF93DF9300D000D01F92CDB7C2
:10089000DEB74A835B836C837D8389830E947D03FB
:1008A00096B7936096BF8981982F93704A815B8138
:1008B0006C817D81923041F0933041F0913011F0A4
:1008C00090E805C090EC03C098E801C098EC93BF95
:1008D00093B79F7C93BF807E803439F0803841F09D
:1008E000803251F483B7806105C083B7806202C053
:1008F00083B7806383BFBC9ACB01BA010F900F907E
:100900000F900F900F90DF91CF910C94CE030C9429
:10091000CE039C0197B79E7F97BF30937B012093B6
:100920007A01232B21F087B7816087BF78940895DF
:100930009C0197B79D7F97BF30937D0120937C01E9
:10094000232B21F087B7826087BF7894089596B7EC
:10095000892F817090FF03C096B7916096BF08956C
:1009600096B791FB882780F991FF03C096B79260F4
:1009700096BF08958EB5887F8EBD1DBC1CBC9EB5EC
:1009800080916001892B8EBD08951DBC1CBC08950B
:100990008EB5887F8EBD0895CF93DF93CDB7DEB738
:1009A000A0970FB6F894DEBF0FBECDBF80E2ECE398
:1009B000F1E0DE01119601900D928A95E1F76CB598
:1009C0007DB5CB01A0E0B0E020916001E1E0F0E076
:1009D000EC0FFD1F34E0239FE00DF11D1124BC013D
:1009E000CD01008004C0660F771F881F991F0A94ED
:1009F000D2F7A0960FB6F894DEBF0FBECDBFDF9141
:100A0000CF910895682F70E080E090E00E946A0C1A
:100A100023E333E343E250E40E94CE0C0E94390CFE
:100A20007BBD6ABD2CB53DB58AB59BB582179307D2
:100A300028F48AB59BB501979DBD8CBD0895CF93D1
:100A4000DF9300D000D0CDB7DEB76115710521E08E
:100A50008207910510F421E034C0693F2FEF72073F
:100A600027E08207910548F453E09695879577959E
:100A700067955A95D1F722E024C0613C2FEF7207A9
:100A80002FE38207910548F446E096958795779580
:100A900067954A95D1F723E014C061302FEF7207B4
:100AA0008207910530F4672F782F892F992724E04A
:100AB00008C02AE096958795779567952A95D1F78E
:100AC00025E02093600169837A838B839C830E9455
:100AD000C80469817A817BBD6ABD9EB58091600141
:100AE000892B8EBD0F900F900F900F90DF91CF91BB
:100AF0000895CF93DF9300D000D01F92CDB7DEB71B
:100B00004A835B836C837D8389830E94C80496B784
:100B10009C6396BF8981982F9F704A815B816C810D
:100B20007D81913041F078F0923049F0933059F462
:100B30009FBD98E106C093E09FBD90E102C01FBC3D
:100B400098E09EBD02C01FBC1EBC9FB59F709FBD9C
:100B5000807F803439F0803841F0803251F48FB595
:100B6000806405C08FB5806802C08FB5806C8FBD72
:100B7000BD9ACB01BA010F900F900F900F900F907C
:100B8000DF91CF910C941F050C941F059C0197B722
:100B90009B7F97BF3093790120937801232B21F01D
:100BA00087B7846087BF789408959C0197B79F7E2C
:100BB00097BF3093770120937601232B21F087B7DD
:100BC000806187BF789408959C0197B79F7D97BFF8
:100BD0003093710120937001232B21F087B780623D
:100BE00087BF7894089596B792FB882780F992FF83
:100BF00003C096B7946096BF089596B794FB882774
:100C000080F994FF03C096B7906196BF089596B798
:100C100095FB882780F995FF03C096B7906296BF31
:100C2000089585B5887F85BD14BC95B580915F0119
:100C3000892B85BD089514BC089585B5887F85BD31
:100C40000895CF93DF93CDB7DEB7A0970FB6F89492
:100C5000DEBF0FBECDBF80E2ECE1F1E0DE01119618
:100C600001900D928A95E1F764B5862F90E0A0E09F
:100C7000B0E020915F01E1E0F0E0EC0FFD1F34E017
:100C8000239FE00DF11D1124BC01CD01008004C0A3
:100C9000660F771F881F991F0A94D2F7A0960FB688
:100CA000F894DEBF0FBECDBFDF91CF910895682FBE
:100CB00070E080E090E00E946A0C23E333E343E2BB
:100CC00050E40E94CE0C0E94390C63BD2CB53DB59A
:100CD00083B590E08217930728F483B590E00197DD
:100CE0009DBD8CBD0895CF93DF9300D000D0CDB7CC
:100CF000DEB76F3F71058105910509F010F421E021
:100D000050C0693F27E072078105910548F4F3E080
:100D10009695879577956795FA95D1F722E041C02A
:100D2000613E2FE172078105910548F4E5E0969553
:100D3000879577956795EA95D1F723E032C0613CB6
:100D40002FE372078105910548F456E09695879543
:100D5000779567955A95D1F724E023C061382FE73E
:100D600072078105910548F447E096958795779538
:100D700067954A95D1F725E014C061302FEF7207CF
:100D80008105910530F4672F782F892F992726E068
:100D900008C02AE096958795779567952A95D1F7AB
:100DA00027E020935F0169837A838B839C830E9471
:100DB0001D06698163BD95B580915F01892B85BD55
:100DC0000F900F900F900F90DF91CF910895CF93D8
:100DD000DF9300D000D01F92CDB7DEB74A835B838C
:100DE0006C837D8389830E941D0696B7906C96BFA5
:100DF0008981982F9F704A815B816C817D819130C0
:100E000039F050F0923031F0933031F498EC05C065
:100E100090EC03C098E801C090E895BD95B59F7C23
:100E200095BD807F803439F0803841F0803251F4B4
:100E300085B5806105C085B5806202C085B58063D7
:100E400085BDBF9ACB01BA010F900F900F900F9004
:100E50000F90DF91CF910C9473060C9473069C0154
:100E600097B79F7B97BF30936D0120936C01232B25
:100E700021F087B7806487BF789408959C0197B765
:100E80009F7797BF30936F0120936E01232B21F042
:100E900087B7806887BF7894089596B796FB8827B0
:100EA00080F996FF03C096B7906496BF089586B701
:100EB000881F8827881F19F096B7906896BF0895F5
:100EC000EAE8F0E08081887F8083109289001092A8
:100ED0008800908180915E01892B80830895109213
:100EE0008900109288000895EAE8F0E08081887F08
:100EF00080830895CF93DF93CDB7DEB7A0970FB669
:100F0000F894DEBF0FBECDBF80E2ECE3F1E0DE017E
:100F1000119601900D928A95E1F760918800709189
:100F20008900CB01A0E0B0E020915E01E1E0F0E0BB
:100F3000EC0FFD1F34E0239FE00DF11D1124BC01D7
:100F4000CD01008004C0660F771F881F991F0A9487
:100F5000D2F7A0960FB6F894DEBF0FBECDBFDF91DB
:100F6000CF910895682F70E080E090E00E946A0CB5
:100F700023E333E343E250E40E94CE0C0E94390C99
:100F800070938700609386002091880030918900DB
:100F900080918600909187008217930748F4809192
:100FA0008600909187000197909389008093880034
:100FB0000895CF93DF9300D000D0CDB7DEB7611591
:100FC000710521E08207910510F421E034C0693FEA
:100FD0002FEF720727E08207910548F453E09695BA
:100FE0008795779567955A95D1F722E024C0613CA3
:100FF0002FEF72072FE38207910548F446E096959C
:101000008795779567954A95D1F723E014C06130AD
:101010002FEF72078207910530F4672F782F892F01
:10102000992724E008C02AE09695879577956795DB
:101030002A95D1F725E020935E0169837A838B831B
:101040009C830E94740769817A8170938700609302
:10105000860090918A0080915E01892B80938A009E
:101060000F900F900F900F90DF91CF910895CF9335
:10107000DF9300D000D01F92CDB7DEB74A835B83E9
:101080006C837D8389830E94740796B79C6396BFA7
:101090008981982F9F704A815B816C817D8191301D
:1010A00049F090F0923059F0933071F490938B00A6
:1010B00098E108C093E090938B0090E103C01092F8
:1010C0008B0098E09EBD03C010928B001EBC9091D7
:1010D0008B009F7090938B00807F803441F080382C
:1010E00051F0803271F480918B00806407C0809150
:1010F0008B00806803C080918B00806C80938B0094
:10110000139ACB01BA010F900F900F900F900F9090
:10111000DF91CF910C94D9070C94D9079C0197B714
:101120009B7F97BF30936B0120936A01232B21F0A3
:1011300087B7846087BF789408959C0197B79F7E96
:1011400097BF3093690120936801232B21F087B763
:10115000806187BF789408959C0197B79F7D97BF62
:101160003093630120936201232B21F087B78062C3
:1011700087BF7894089596B792FB882780F992FFED
:1011800003C096B7946096BF089596B794FB8827DE
:1011900080F994FF03C096B7906196BF089596B703
:1011A00095FB882780F995FF03C096B7906296BF9C
:1011B00008951F920F920FB60F9211240BB60F9243
:1011C0002F933F934F935F936F937F938F939F934F
:1011D000AF93BF93EF93FF938CB1E0918001F091B7
:1011E00081010995FF91EF91BF91AF919F918F91EF
:1011F0007F916F915F914F913F912F910F900BBE17
:101200000F900FBE0F901F9018951F920F920FB660
:101210000F9211240BB60F922F933F934F935F932E
:101220006F937F938F939F93AF93BF93EF93FF93AE
:1012300080919C00E0917E01F0917F010995FF91E2
:10124000EF91BF91AF919F918F917F916F915F913E
:101250004F913F912F910F900BBE0F900FBE0F90AB
:101260001F9018959B01AC018AB1877E8AB9599A63
:1012700060E874E88EE190E00E94170CBA01A901C1
:101280004150510961097109BB27A72F962F852F5E
:101290008093900049B9E5E9F0E080818260808325
:1012A0008AB188618AB90895909381018093800101
:1012B000892B19F0579A78940895579808955D9B53
:1012C000FECF8CB90895CF92DF92EF92FF920F93E9
:1012D0001F93CF93DF9300D000D0CDB7DEB78C0142
:1012E000C12CD12C7601C416D506E606F70699F076
:1012F0008FEFC81AD80AE80AF80AF80181918F011D
:1013000049835A836B837C830E945F097C816B8154
:101310005A814981E8CF0F900F900F900F90DF9185
:10132000CF911F910F91FF90EF90DF90CF90089594
:10133000CF93DF93EC018991882319F00E945F0914
:10134000FACFDF91CF9108955F9BFECF2CB1FC01C6
:1013500020830895CF92DF92EF92FF920F931F9315
:10136000CF93DF9300D000D0CDB7DEB78C01C12C76
:10137000D12C7601C8018C0D9D1DC416D506E6063C
:10138000F70681F049835A836B837C830E94A4090A
:101390008FEFC81AD80AE80AF80A7C816B815A8153
:1013A0004981E8CF0F900F900F900F90DF91CF9170
:1013B0001F910F91FF90EF90DF90CF900895EF92E3
:1013C000FF920F931F93CF93DF9300D000D0CDB740
:1013D000DEB77C018701C70149835A836B837C8315
:1013E0000E94A4098FEFE81AF80AF8018081498168
:1013F0005A816B817C818A3069F4F80111820F90E7
:101400000F900F900F90DF91CF911F910F91FF9050
:10141000EF9008954150510961097109D9F6EDCF56
:10142000CF92DF92EF92FF92CF93DF93EC01FB011B
:10143000108211821282138280819181A281B381F4
:1014400082179307A407B50798F45F9B11C06C013E
:101450007D016FEFC61AD60AE60AF60AC082D1826B
:10146000E282F3826CB1DE01A80FB91F6C93E4CF66
:10147000DF91CF91FF90EF90DF90CF900895CF93C1
:10148000DF939B01AC01CAE9D0E08881877E888325
:10149000EBE9F0E080818260808360E874E88EE1AF
:1014A00090E00E94170CBA01A9014150510961094D
:1014B0007109BB27A72F962F852F80939800409303
:1014C0009900EDE9F0E08081846080838881886103
:1014D0008883DF91CF91089590937F0180937E015F
:1014E000892B39F080919A00806880939A007894D3
:1014F000089580919A008F7780939A000895909133
:101500009B0095FFFCCF80939C000895CF92DF92C3
:10151000EF92FF920F931F93CF93DF9300D000D0F1
:10152000CDB7DEB78C01C12CD12C7601C416D506FF
:10153000E606F70699F08FEFC81AD80AE80AF80A03
:10154000F80181918F0149835A836B837C830E94C8
:101550007F0A7C816B815A814981E8CF0F900F907F
:101560000F900F90DF91CF911F910F91FF90EF900F
:10157000DF90CF900895CF93DF93EC01899188237A
:1015800019F00E947F0AFACFDF91CF910895209140
:101590009B0027FFFCCF20919C00FC012083089535
:1015A000CF92DF92EF92FF920F931F93CF93DF932F
:1015B00000D000D0CDB7DEB78C01C12CD12C760184
:1015C000C8018C0D9D1DC416D506E606F70681F0F0
:1015D00049835A836B837C830E94C70A8FEFC81AA2
:1015E000D80AE80AF80A7C816B815A814981E8CFE0
:1015F0000F900F900F900F90DF91CF911F910F914F
:10160000FF90EF90DF90CF900895EF92FF920F93AD
:101610001F93CF93DF9300D000D0CDB7DEB77C010E
:101620008701C70149835A836B837C830E94C70A61
:101630008FEFE81AF80AF801808149815A816B819D
:101640007C818A3069F4F80111820F900F900F901D
:101650000F90DF91CF911F910F91FF90EF90089520
:101660004150510961097109D9F6EDCFCF92DF924E
:10167000EF92FF92CF93DF93EC01FB011082118276
:101680001282138280819181A281B3818217930794
:10169000A407B507B0F460919B0067FF12C06C010E
:1016A0007D016FEFC61AD60AE60AF60AC082D18219
:1016B000E282F38260919C00DE01A80FB91F6C9357
:1016C000E1CFDF91CF91FF90EF90DF90CF90089521
:1016D000CF93DF931F92CDB7DEB789830E947D033E
:1016E0000E947B031092830189818C3FB9F058F4EA
:1016F0008A3F41F128F58A3A69F58AEA0F90DF912D
:10170000CF910C945F098E3FA1F040F48DEF809350
:1017100082016FE970E080E090E006C08093820172
:101720006FE470E080E090E00F90DF91CF910C9437
:1017300087048093820167E270E080E090E0F4CF5C
:1017400049E001C045E06FEF80E00F90DF91CF915D
:101750000C94C700109282010F90DF91CF910895F1
:1017600049E06FEF80E00E94C70089E00E94960088
:1017700080E00E94AE004FE450E060E070E082E064
:101780000E9442040E947D0360E874E88EE190E0CC
:101790000E94320988E69BE00E94540906B601FEC9
:1017A000FDCF86B7826086BF809182018D3F51F068
:1017B00020F48C3F99F7369A13C08E3F01F18F3F8A
:1017C000D1F0ECCF369A3699FECF5D9BFECF84B137
:1017D00095B18CB95D9BFECF84B195B19CB9DECF3C
:1017E0003699FECF5D9BFECF84B195B196958795D6
:1017F000969587951AC05D9BFECF89B316C029B315
:101800009091840130E1939FC0011124922F9F7029
:10181000892B809384019091830121E0290F2093EB
:10182000830190FFBBCF5D9BFECF8CB9B7CFA1E208
:101830001A2EAA1BBB1BFD010DC0AA1FBB1FEE1F4A
:10184000FF1FA217B307E407F50720F0A21BB30B95
:10185000E40BF50B661F771F881F991F1A9469F711
:1018600060957095809590959B01AC01BD01CF016D
:1018700008950E94AD0C88F09F5798F0B92F9927D2
:10188000B751B0F0E1F0660F771F881F991F1AF06B
:10189000BA95C9F714C0B13091F00E94C70CB1E0FD
:1018A00008950C94C70C672F782F8827B85F39F0FC
:1018B000B93FCCF3869577956795B395D9F73EF404
:1018C00090958095709561957F4F8F4F9F4F0895AC
:1018D000E89409C097FB3EF49095809570956195CA
:1018E0007F4F8F4F9F4F9923A9F0F92F96E9BB2780
:1018F0009395F695879577956795B795F111F8CFFC
:10190000FAF4BB0F11F460FF1BC06F5F7F4F8F4F66
:101910009F4F16C0882311F096E911C0772321F05C
:101920009EE8872F762F05C0662371F096E8862FF4
:1019300070E060E02AF09A95660F771F881FDAF74B
:10194000880F9695879597F9089557FD9058440FFD
:10195000551F59F05F3F71F04795880F97FB991F0E
:1019600061F09F3F79F087950895121613061406CB
:10197000551FF2CF4695F1DF08C016161706180658
:10198000991FF1CF86957105610508940895E89433
:10199000BB2766277727CB0197F908950E94E10CB2
:1019A0000C94520D0E94440D38F00E944B0D20F013
:1019B000952311F00C943B0D0C94410D11240C94C3
:1019C000C80C0E94A50C70F3959FC1F3950F50E0D1
:1019D000551F629FF001729FBB27F00DB11D639FE1
:1019E000AA27F00DB11DAA1F649F6627B00DA11D87
:1019F000661F829F2227B00DA11D621F739FB00D2D
:101A0000A11D621F839FA00D611D221F749F33279C
:101A1000A00D611D231F849F600D211D822F762F35
:101A20006A2F11249F5750409AF0F1F088234AF012
:101A3000EE0FFF1FBB1F661F771F881F915050407E
:101A4000A9F79E3F510580F00C943B0D0C94C80CF7
:101A50005F3FE4F3983ED4F3869577956795B79505
:101A6000F795E7959F5FC1F7FE2B880F911D96951F
:101A7000879597F9089597F99F6780E870E060E08F
:101A800008959FEF80EC089500240A941616170617
:101A900018060906089500240A941216130614065F
:101AA00005060895092E0394000C11F4882352F0C2
:101AB000BB0F40F4BF2B11F460FF04C06F5F7F4F7A
:0A1AC0008F4F9F4F0895F894FFCF59
:101ACA003A003700340031002200610064003B0014
:101ADA003800350032002300620065002000000053
:101AEA0000000000030000000500000006000000DE
:101AFA0007000000080000000A00000020000000A3
:101B0A0000000000030000000600000008000000BA
:0C1B1A000A0000000000000000000000B5
:00000001FF
